:020000040800F2
:100000000000002031010008B1040008B10400081C
:10001000B1040008B1040008B1040008B1040008EC
:10002000B1040008B1040008B1040008B1040008DC
:10003000B1040008B1040008B1040008B1040008CC
:10004000B1040008B1040008B1040008B1040008BC
:10005000B1040008B1040008B1040008B1040008AC
:10006000B1040008B1040008B1040008B10400089C
:10007000B1040008B1040008B1040008B10400088C
:10008000B1040008B1040008B1040008B10400087C
:10009000B1040008B1040008B1040008B10400086C
:1000A000B1040008B1040008B1040008B10400085C
:1000B000B1040008B1040008B1040008B10400084C
:1000C000B1040008B1040008B1040008B10400083C
:1000D000B1040008B1040008B1040008B10400082C
:1000E000B1040008B1040008B1040008B10400081C
:1000F000B1040008B1040008B1040008B10400080C
:10010000B1040008B1040008B1040008B1040008FB
:10011000B1040008B1040008B1040008B1040008EB
:10012000B1040008B1040008B1040008B1040008DB
:10013000104880F30988022080F31488BFF36F8F82
:100140000D4880470D490E4A0E4B9A423EBF51F86A
:10015000040B42F8040BF8E700200B490B4A9142CC
:100160003CBF41F8040BFAE709488047094880473B
:10017000FEE770470004002073010008C004000877
:1001800000000020000000200000002000000020EF
:1001900073010008ED02000880B400AF4FF48053F3
:1001A000C4F202034FF07D029A614FF40063C4F27F
:1001B00001034FF088321A604FF40063C4F2010368
:1001C0004FF088325A604FF40063C4F201034FF0DD
:1001D0000002DA604FF44063C4F201034FF088324A
:1001E0001A604FF44063C4F201034FF088325A6042
:1001F0004FF44063C4F201034FF00002DA604FF4A1
:100200008053C4F201034FF088321A604FF48053D8
:10021000C4F201034FF088325A604FF48053C4F2A5
:1002200001034FF00002DA604FF4A053C4F201035F
:100230004FF088321A604FF4A053C4F201034FF01C
:1002400088325A604FF4A053C4F201034FF0000209
:10025000DA604FF4C053C4F201034FF088321A60E1
:100260004FF4C053C4F201034FF088325A604FF488
:10027000C053C4F201034FF00002DA60BD4680BCF7
:10028000704700BF80B487B000AFF860B9607A6093
:10029000FB687B61BB68072B07D97B6903F104030B
:1002A0007B61BB68A3F10803BB607B691B683B6192
:1002B000BB684FEA83034FF00F0202FA03F36FEAC1
:1002C00003033A6913403B61BB684FEA83037A68D2
:1002D00002FA03F33A6913433B617B693A691A6096
:1002E00007F11C07BD4680BC704700BF80B582B0D7
:1002F00000AF44F24023C0F20F033B6000F0D2F89D
:100300004FF49050C0F27A004FF42241C0F24A41BB
:1003100000F062F84FF44060C4F201004FF00101B8
:100320004FF00102FFF7AEFF4FF000037B6003E0E8
:100330007B6803F101037B607A683B689A42F7D3DC
:1003400048F28413C4F221234FF001021A604FF0E7
:1003500000037B6003E07B6803F101037B607A6844
:100360003B689A42F7D348F28413C4F221234FF03A
:1003700000021A60D8E700BF80B485B000AF786093
:100380007A6843F2FF53C0F26E139A4203D84FF0DB
:100390000003FB600DE07A6846F6FF33C0F2DC2311
:1003A0009A4203D84FF00103FB6002E04FF00203D2
:1003B000FB604FF40053C4F202034FF40052C4F246
:1003C000020212681146FA680A431A6007F114071C
:1003D000BD4680BC704700BF80B584B000AF786078
:1003E00039604FF04003C4F242234FF001021A601B
:1003F0003868FFF7C1FF3A687B68B2FBF3F3FB6034
:10040000FB68102B02D94FF01003FB607B68FA6881
:1004100002FB03F33B604FF48053C4F202034FF43A
:100420008052C4F2020252681146FA68A2F1020236
:100430004FEA82420A4342F482325A6000BF4FF0D0
:100440004403C4F242231B68002BF8D04FF0600332
:10045000C4F242234FF001021A6000BF4FF0640360
:10046000C4F242231B68002BF8D04FF48053C4F22F
:1004700002034FF48052C4F20202526842F00202B8
:100480005A6000BF4FF48053C4F202035B6803F06C
:100490000C03082BF6D13B68184607F11007BD4640
:1004A00080BD00BF80B500AFFFF776FE80BD00BF06
:1004B000684620F007018D4681B400AFFEE700BF1B
:0400000508000131BD
:00000001FF
